:10000000F9C0000013C1000011C100000FC10000C1
:100010000DC100000BC1000009C1000007C10000B4
:1000200005C1000003C1000001C100000C94C8110B
:10003000FDC00000FBC00000F9C000002BC700009D
:10004000F5C00000F3C00000F1C0000084C1000052
:10005000EDC00000EBC00000E9C00000E7C00000F8
:10006000E5C00000E3C00000E1C00000DFC0000008
:10007000DDC0000018034100560052004900530043
:10008000500020006D006B004900490000000C0387
:10009000410054004D0045004C00000004030904D9
:1000A00012011001FF000010EB0304210002010205
:1000B00003014000410142430309000A000A000B0A
:1000C000000C000D000D000E000F001000100012BB
:1000D0000013001300140016001600180019001A6F
:1000E000001C001D001F0020002200230025002707
:1000F0000029002B002E0030003200340037003A77
:10010000003D004000430046004A004E00520055AA
:10011000005A005E00630068006D00730078007E86
:100120000084008B0091009900A000A900B100B9E3
:1001300000C300CC00D600E100EC00F70004011180
:10014000011E012D013B014B015B016C017D019101
:1001500001A501BA01CF01E601FE01160231024CF0
:10016000026A028802A802CA02ED02110338036083
:10017000038B03B803E70318044B048104B904F5A7
:100180000434057505B90501064E069D06EF0648BF
:1001900007A30704086508D0084009B6092B0AAB75
:1001A0000A300BC30B510CEE0C8F0D400EF60EAF48
:1001B0000F681047111412F512ED13E214F015F93F
:1001C000161B185C19911AE51B251D831E0320AB15
:1001D00021302332250F27F128F82A1A2D492FA183
:1001E000311434A1364539173C1A3F34426045DF9B
:1001F00048704C0011241FBECFEFD2E0DEBFCDBF50
:1002000011E0A0E0B1E0ECE5F7E202C005900D924C
:10021000A23AB107D9F711E0A2EAB1E001C01D92FC
:10022000A53BB107E1F744D00C94AC13E9CE95B1EE
:100230009F71982B95B9089584B7877F84BF88E113
:100240000FB6F89480936000109260000FBE90E0AB
:1002500080E80FB6F89480936100909361000FBE20
:1002600084B1806E84B985B18F7185B90C94B91150
:1002700080ECDDCF80E4DBCF82E060E842E30E94E7
:100280002011882311F080E801C080E4D0CF8EB324
:10029000843069F4C3D182E08093E9008091E80062
:1002A00082FF05C080ECC3DF73D080E8C0CF089523
:1002B000C3DF66D080E4BBDF7894489B02C090E047
:1002C00001C090E285B18F7D892B85B9E0DF0E9466
:1002D0007713F3CF01C00895F9011082923029F00D
:1002E000933049F0913071F528C0908380E290E01E
:1002F000EEE1F1E02BC0813051F0813028F0823006
:1003000049F08330F9F40BC0ECE9F0E005C0EEE809
:10031000F0E002C0E4E7F0E0849190E017C0809143
:10032000000190E022E330E030930F0120930E01B2
:1003300022E02083E0E0F1E009C082E190E0E0EA21
:10034000F0E004C080E090E0E0E0F0E0DA01119637
:10035000FC93EE93089578941F920F920FB60F922C
:1003600011248F938AB5882321F08AB581508ABDE4
:1003700001C015BC8F910F900FBE0F901F90189564
:100380008BE987BD82E084BD80936E002CD1B0C51F
:100390000F931F93CF93DF930F92CDB7DEB71091DA
:1003A000F10084E68ABD85E085BD143109F4CAC038
:1003B000153110F51A3009F4ACC01B3068F4143054
:1003C00038F4123008F054C0113009F0D3C033C0F3
:1003D000163009F0CFC077C0113109F4AEC0123128
:1003E00020F4103109F0C6C0A6C0123109F4ADC026
:1003F000133109F0BFC0A3C0193109F4ABC01A31E1
:1004000068F4163109F49EC0163108F498C017310B
:1004100009F4A0C0183109F0ADC099C01D3109F42C
:100420009CC01D3108F493C0103509F49AC01135F1
:1004300009F0A0C094C08091E8008B778093E80019
:1004400082E08093E9008091EC0081608093EC0071
:100450001093F1001092F1008AE08093F1008EE396
:1004600091E06AE070E040E050E00E94F50E98C034
:100470000091F100123011F46091F1008091E800D8
:100480008B778093E80082E08093E9008091EC0014
:1004900081608093EC001093F100802F6983BFD0BE
:1004A0006981123039F481FF0CC01092F100802F65
:1004B000C6D076C080FF05C01092F100802FB7D063
:1004C0006DC080EC6BC086EA91E064E070E040E0D3
:1004D00050E00E94950F8091E8008B778093E800B0
:1004E00082E08093E9008091EC0081608093EC00D1
:1004F0008091A6019091A701A091A801B091A901B6
:10050000B7FF03C081E08093A50186E08093F100EE
:100510000FC08091E8008B778093E80082E08093A1
:10052000E9008091EC0081608093EC001093F10071
:100530001092F10035C033D438C0FDD336C0812FBE
:10054000BDD033C0812FE6D130C0ADD32EC0812FB6
:100550007ED22BC0812FD4D228C013D326C0ECD694
:1005600024C01AD722C08091E8008B778093E800DE
:100570000E9453118091F2008034A9F38091E80029
:100580008B778093E80082E08093E9008091EC0013
:1005900081608093EC001093F10089EC8093F1006E
:1005A0008091E8008E778093E80015BC0E9453117B
:1005B00082E08093E9008091EC008E7F8093EC00D4
:1005C0000F90DF91CF911F910F9108959AE0E9E488
:1005D000F1E02081821729F033969150D1F7E0E0C5
:1005E000F0E0CF010895CF93DF9380E090E00E9488
:1005F0009213D82F81E090E00E949213C82FDF3F22
:1006000021F08EE9E3DFFC01D283CF3F21F088E9BE
:10061000DDDFFC01C283DF91CF9108950895D6DF1D
:10062000009719F0FC018181089580E00895CEDFE4
:10063000009719F0FC018281089580E008951F93CE
:10064000CF93DF930F92CDB7DEB7182F6983BEDF4C
:10065000FC016981009761F062831E3919F480E022
:1006600090E004C0183921F481E090E00E949A13D0
:100670000F90DF91CF911F91089590916701992379
:1006800029F08EBD0DB407FEFDCF089599C4909159
:100690006701992331F08EBD0DB407FEFDCF8EB5F5
:1006A00008958EC480916701882331F01EBC0DB47B
:1006B00007FEFDCF8EB5089580E082C44F925F9211
:1006C0006F927F928F929F92AF92BF92CF92DF9262
:1006D000EF92FF920F931F93CF93DF93CDB7DEB7C7
:1006E000C950D1400FB6F894DEBF0FBECDBF182F52
:1006F000CE01019669E070E040E050E00E94450FB5
:100700006A8179817A83698381E06130780788F032
:100710008091E8008B778093E80082E08093E90085
:100720008091EC0081608093EC001093F10080ECEC
:10073000D2C0CE010A9640E050E00E94450F898168
:100740009A810A968F739070009739F48091E8002F
:100750008B778093E8000E9453118091E8008B779B
:100760008093E80082E08093E9008091EC00816052
:100770008093EC00133111F4D88401C0D9844090E7
:10078000A6015090A7018AE0882E912C8C0E9D1E08
:10079000AA24BB24EE24FF2498E0C92E7724739466
:1007A00063C0F40161904F010B818091A501882302
:1007B00019F059D41092A5018D815FDF8091A701B6
:1007C0005CDF8091A60159DF862D57DF133119F4C4
:1007D0008D818C258D83E114F10479F46D1469F019
:1007E0008F81A0FE04C0133111F4886001C0877F9F
:1007F0008F83E090A601F090A70100FD11C0E114E5
:10080000F10421F403FD02C0097F0260802FB701CB
:100810004D2D2C810F8130D4882369F5EE24FF24DF
:10082000A0FC02C01531E9F48091A6019091A701C6
:10083000A091A801B091A9010196A11DB11D8093BD
:10084000A6019093A701A093A801B093A901133129
:1008500041F4A070B0700097A105B10511F4709239
:10086000A5010894A11CB11C89819A81A816B9061A
:1008700008F497CF80E09B8197FF2BC08E81FDDE2F
:10088000852DFBDE842DF9DE80E0F7DE8B8185FF90
:1008900006C0E114F10419F48F7C80618B838B8195
:1008A000B7014D2D2C810F81E7D3133191F4409185
:1008B000A6015091A7016091A8017091A9016070F3
:1008C0007070411551056105710519F491E090931F
:1008D000A5011093F1008093F1008091E8008E77DC
:1008E0008093E800C75FDE4F0FB6F894DEBF0FBEFF
:1008F000CDBFDF91CF911F910F91FF90EF90DF90CF
:10090000CF90BF90AF909F908F907F906F905F90AF
:100910004F900895DF92EF92FF920F931F93CF9322
:10092000DF9300D00F92CDB7DEB7F82ECE0101963F
:1009300063E070E040E050E00E94450F89819A81B9
:1009400099838A838091E8008B778093E80082E026
:100950008093E9008091EC0081608093EC00F0923C
:10096000F1001092F10000E010E028E0D22EEE2419
:10097000E39448C08091A501882319F074D31092A4
:10098000A5018B817ADE8091A70177DE8091A60197
:1009900074DE88DE8093F1008091E80085FD07C059
:1009A0008091E8008E778093E8000E94531124E143
:1009B000F21619F48B818D258B8300FD03C086E12F
:1009C000F816F1F48091A6019091A701A091A801D9
:1009D000B091A9010196A11DB11D8093A60190932C
:1009E000A701A093A801B093A90126E1F21641F056
:1009F000A070B0700097A105B10511F4E092A501B7
:100A00000F5F1F4F89819A810817190708F4B2CF29
:100A10001092F1009091E8008091E8008E77809329
:100A2000E80095FD09C00E9453118091E8008E777F
:100A30008093E8000E9453110F900F900F90DF9168
:100A4000CF911F910F91FF90EF90DF900895CF927B
:100A5000DF92EF92FF920F931F93CF93DF93CDB767
:100A6000DEB729970FB6F894DEBF0FBECDBFD82EE4
:100A7000CE01059665E070E040E050E00E94450F31
:100A80008091E8008B778093E80082E08093E90012
:100A90008091EC0081608093EC008E010A5F1F4F13
:100AA0007E010894E11CF11C34E0C32EF801819111
:100AB0008F01EDDDF70181937F01CA94B9F7D092E0
:100AC000F1001092F1008D81FE01E80FF11D80818F
:100AD0008093F1001092F1008091E8008E7780936E
:100AE000E80029960FB6F894DEBF0FBECDBFDF91A8
:100AF000CF911F910F91FF90EF90DF90CF900895CD
:100B0000EF92FF920F931F93CF93DF9300D000D00B
:100B1000CDB7DEB7F82ECE01019664E070E040E07C
:100B200050E00E94450F8091E8008B778093E800A9
:100B300082E08093E9008091EC0081608093EC007A
:100B40008E010F5F1F4FE4E0EE2EF80181918F01BF
:100B500094DDEA94D1F7F092F1001092F100109236
:100B6000F1008091E8008E778093E8000F900F905D
:100B70000F900F90DF91CF911F910F91FF90EF9009
:100B80000895FF920F931F93CF93DF93CDB7DEB7F6
:100B9000C250D1400FB6F894DEBF0FBECDBFCE011C
:100BA000019663E070E040E050E00E94450F8E0146
:100BB0000C5F1F4F6981C80170E040E050E00E9467
:100BC000450F8091E8008B778093E80082E0809366
:100BD000E9008091EC0081608093EC008DE18093CE
:100BE000F1001092F100FF240BC08981F81628F45F
:100BF000F801EF0DF11D808101C080E03EDDF3942E
:100C00008B81F81690F300E01CC08981F81650F42F
:100C1000E4E0F0E0EC0FFD1FEF0DF11DF394808197
:100C200036DD01C03FDD8093F1008091E80085FD55
:100C300007C08091E8008E778093E8000E945311EE
:100C40000F5F8A81081708F31092F1009091E80075
:100C50008091E8008E778093E80095FD09C00E949E
:100C600053118091E8008E778093E8000E94531121
:100C7000CE5FDE4F0FB6F894DEBF0FBECDBFDF9163
:100C8000CF911F910F91FF90089506C0EFE9FFE00B
:100C90003197F1F700C00000882321F09AB5815008
:100CA0009923A1F70895FF920F931F93CF93DF939A
:100CB00000D000D000D0CDB7DEB7CE01019666E0FF
:100CC00070E040E050E00E94450F8091E8008B7793
:100CD0008093E80082E08093E9008091EC008160DD
:100CE0008093EC008E010D5F1F4FF4E0FF2EF801A2
:100CF00081918F01C2DCFA94D1F78A81882321F493
:100D00008981C3DF80E001C090D192E19093F1002E
:100D10008093F1008091E8008E778093E80026961A
:100D20000FB6F894DEBF0FBECDBFDF91CF911F91FC
:100D30000F91FF9008950F931F93CF93DF9300D0EF
:100D4000CDB7DEB7CE01019662E070E040E050E042
:100D50000E94450F08EE10E0F80180818B778083B8
:100D600082E08093E900ECEEF0E080818160808396
:100D700089818BDF80E04DD1CFD08A8186DFE1EFA2
:100D8000F0E081E180831082F80180818E7780839A
:100D90000F900F90DF91CF911F910F910895DF92E7
:100DA000EF92FF920F931F93CF93DF93CDB7DEB7F0
:100DB0002F970FB6F894DEBF0FBECDBFCE010596BC
:100DC0006BE070E040E050E00E94450F8091E80049
:100DD0008B778093E80082E08093E9008091EC00BB
:100DE00081608093EC001092A6011092A7011092EE
:100DF000A8011092A9018F8148DFBAD019C0898556
:100E000044DFF80181918F0142DCF70181937F017A
:100E1000DA94A9F78B85882311F1FE01E80FF11D03
:100E200090818A859817D9F080E0F3D08E812DDFEC
:100E300081E0EFD08E8129DF8885982F91509887A7
:100E4000882379F08AB5882361F08E01045F1F4FF3
:100E50007E010894E11CF11CA4E0DA2ED0CF80E0E2
:100E600001C080EC90E19093F1008093F1008091BB
:100E7000E8008E778093E8002F960FB6F894DEBFD7
:100E80000FBECDBFDF91CF911F910F91FF90EF90DB
:100E9000DF9008951F920F920FB60F9211248F9337
:100EA000199908C08091A30187FF02C02A9A19C02E
:100EB0002A9817C08091A301880F8093A301809185
:100EC000A20181508093A201882321F41092810015
:100ED00082E086BB1B9B05C08091A301816080934B
:100EE000A301199A8F910F900FBE0F901F90189524
:100EF0003E9A10926F00109285001092840081E05B
:100F000090E0909389008093880080E48093800033
:100F100089E080938100089580916701882349F0DA
:100F200084B1897F84B985B1867F85B91CBC1DBC1D
:100F3000089584B1897F84B985B1867F85B9D8CF7A
:100F400092E090936F00109285001092840090E0E0
:100F5000880F991F85559F4FFC012591349130933F
:100F600089002093880010928000109281000895DB
:100F700088E95DDB8730D8F491E090936701E82F32
:100F8000F0E0EE54FF4FE491E061209A289A84B19A
:100F9000866084B923982B9A8DB5E6FF02C08160E4
:100FA00001C08E7F8DBD2098E064ECBD0895109245
:100FB000670194B1966094B995B1996095B9C0CF25
:100FC0008093A30188E08093A2018091A30187FF11
:100FD00002C02A9A01C02A981092850010928400BB
:100FE0008AE0809381008091A201882319F08AB55C
:100FF0008823C9F7109281008091A30108959091F0
:101000006701992329F08EBD0DB407FEFDCF089529
:10101000D7CF882339F0249A8EE909DB882319F485
:101020002C9A089524982C98089580EFE8DF80E0AA
:10103000E6DF80E0E4DF80916701882331F01EBCA9
:101040000DB407FEFDCF8EB502C080E0B9DF80FF92
:1010500003C08AB5882349F78AB5882311F080E058
:10106000089581E808958DE4CADF80E0C8DF8091AB
:10107000A801C5DF80E0C3CF0F931F93CF93DF9309
:10108000EB01142FE82FF0E0EE77E830F10589F15D
:10109000E930F1053CF4E230F10569F0E430F105A6
:1010A00051F50CC0E032F10549F0E034F10509F1E9
:1010B000E031F10501F5822FE8DD1DC0802F9FDFB3
:1010C0008D2F9DDF8C2F9BDF80916701882331F06E
:1010D0001EBC0DB407FEFDCF8EB502C080E070DFF0
:1010E000811719F48AB5882349F78AB5882329F02E
:1010F00002C09BDF03C080E001C080E894E69ABD97
:10110000DF91CF911F910F9108959B01692F782F47
:10111000832F922F0895AF92BF92CF92DF92EF92DA
:10112000FF920F931F93CF93DF93CDB7DEB7C850D5
:10113000D1400FB6F894DEBF0FBECDBFCE010196F1
:1011400068E070E040E050E0A0D66B817C818D814A
:101150009E81DBDFDC01CB018B839C83AD83BE836F
:101160007F8168856F837887CE01099640E050E0E3
:101170008CD68F81988509968F739070009739F47B
:101180008091E8008B778093E8000E945311809152
:10119000E8008B778093E80082E08093E9008091FB
:1011A000EC0081608093EC008091A401882379F5A4
:1011B00029812150EB80FC800D811E812630A0F416
:1011C00030E0F901E858FE4F4081F901E258FE4F46
:1011D0008081F901EC57FE4F608126573E4FF9019F
:1011E0009081992371F003C066E283E24EE2AF8002
:1011F000B8842A8199E0C92ED12CCC0EDD1E10D4E2
:101200000EC0842FB801A7012985E6D308C04F81FD
:1012100058858B819C81BE01675F7F4F93D5882362
:1012200011F080E001C083E090E59093F10094E03C
:101230009093F1008093F1008091E8008E77809385
:10124000E800C85FDE4F0FB6F894DEBF0FBECDBF1B
:10125000DF91CF911F910F91FF90EF90DF90CF9092
:10126000BF90AF900895CF93DF93CDB7DEB7C7504F
:10127000D1400FB6F894DEBF0FBECDBFCE010196B0
:1012800067E070E040E050E000D66A817B818C81AD
:101290009D813BDFDC01CB018A839B83AC83BD83D3
:1012A0008E819F819E838F838091E8008B778093CE
:1012B000E80082E08093E9008091EC0081608093F7
:1012C000EC008091A4012E813F81882349F46A813A
:1012D0007B818C819D81AE01485F5F4F37D307C012
:1012E0008A819B81BE01685F7F4FA901FFD488235B
:1012F00011F080E001C083E090E59093F10095E06B
:101300009093F1008093F100882339F46E817F81FE
:10131000CE01089640E050E068D58091E8008E77D5
:101320008093E800C95FDE4F0FB6F894DEBF0FBEB2
:10133000CDBFDF91CF910895CF93DF930F92CDB7BB
:10134000DEB7CE01019661E070E040E050E09DD54F
:101350008091E8008B778093E80082E08093E90039
:101360008091EC0081608093EC0089818093A401DE
:1013700081E58093F1008981813011F080E001C026
:1013800080EC8093F1008091E8008E778093E800F4
:101390000F90DF91CF910895CF93DF93CDB7DEB754
:1013A00029970FB6F894DEBF0FBECDBF8091F10034
:1013B000843009F496C0853048F4823089F1833056
:1013C00008F04AC0813009F029C10AC0863009F40A
:1013D0008CC0863008F487C0873009F01FC1C9C0AF
:1013E0008091E8008B778093E80082E08093E900A9
:1013F0008091EC0081608093EC008091A4018823AF
:1014000011F420D205C0823011F427D401C080E04D
:1014100090E59093F10091E09093F1008927F7C057
:101420009091E8009B779093E8008093E900809189
:10143000EC0081608093EC008091A401882311F47A
:1014400043D201C048D480E58093F10082E08093CC
:10145000F1001092F100DDC0CE01059665E070E06C
:1014600040E050E012D56E817F81888599854DDE00
:10147000DC01CB018E839F83A887B9878091E80028
:101480008B778093E80082E08093E9008091EC0004
:1014900081608093EC008091A401ED81882379F430
:1014A000E150E83028F4F0E0E059FE4F808101C0BF
:1014B00080E04E815F816885798523D308C0E13063
:1014C00011F480E101C084E16E817F8173D48823AF
:1014D00011F080E001C083E090E59093F10093E08B
:1014E00094C019DE9BC0BFDE99C0CE01059661E0B5
:1014F00070E040E050E0C9D48091E8008B778093A1
:10150000E80082E08093E9008091EC0081608093A4
:10151000EC008091A401882391F4ED81E150E23048
:1015200028F4F0E0E057FE4F808101C088E7BE015B
:101530006F5F7F4FD4D1882321F080E003C081E02A
:1015400001C083E090E59093F10096E09093F10064
:101550008093F100882309F05CC089819A81AB8176
:10156000BC81CD01AA27BB278093F10099818A8194
:101570004CC08091F100833031F1843028F4813007
:1015800041F0823081F516C0843011F1853059F573
:1015900024C08091F1009091F1002091F1003091F0
:1015A000F10030936C0120936D0190936E01809354
:1015B0006F0117C08091F1009091F10090936A0142
:1015C00080936B010EC08091F1008093690109C086
:1015D0008091F1008093680104C08091F1008091B6
:1015E000F10080E001C081E09091E8009B7790934A
:1015F000E80092E09093E9009091EC009160909364
:10160000EC0090E59093F10097E09093F1008093C7
:10161000F1008091E8008E778093E80029960FB65C
:10162000F894DEBF0FBECDBFDF91CF9108954D99E5
:10163000FECF4D9BFECF4D99FECF5B9A539A809182
:10164000C9008F7E8093C9008091C9008860809313
:10165000C90081E08093AA0108958091C80086FFA7
:10166000FCCF8091C80080648093C8008091C9003D
:10167000877F8093C9008091C90080618093C900F1
:1016800053985B981092AA0108958091AA0188232B
:1016900009F0E3DF80EC8093C8001092C90010923B
:1016A000CA008AB1877D8AB98BB1837D8BB90895D1
:1016B0008091AA01882309F0D0DF8091C800806C56
:1016C0008093C8001092C9001092CA008AB1877D29
:1016D0008AB98BB1837D8BB924982C980895CF93C8
:1016E000DF930F92CDB7DEB79091AA01992319F439
:1016F00089839DDF89819091C80095FFFCCF9091EF
:10170000C80090649093C8008093CE000F90DF9142
:10171000CF9108958091AA01882309F09EDF8091DE
:10172000C80087FD03C08AB58823C9F78091CE0021
:1017300008958091AA01882309F479DF8CE04D99FE
:10174000FECF4D9BFECF4D99FECF8150C1F708953E
:101750001092AA01249A2C9885E08A95F1F700004E
:101760008AB188628AB9529883E090E09093CD0064
:101770008093CC0088E08093C9008FE68093CA00F4
:10178000D8DFD7CF1092AA018AB188628AB952985D
:101790005B9A85E08A95F1F7000083E090E09093F2
:1017A000CD008093CC0088E08093C9008FE68093C1
:1017B000CA00BFDFBECF1F93CF93DF9300D0CDB75A
:1017C000DEB7182F862F79839A8389DF7981872F57
:1017D00086DF812F84DF9A81892F81DF0F900F9020
:1017E000DF91CF911F91089590E0A0E0B0E040918B
:1017F0006C0150916D0160916E0170916F01842BAD
:10180000952BA62BB72BBC01CD01D5CF80E867DF88
:1018100081DF9AB5992321F081FFF8CF81E0089507
:1018200080E008958BE65BDF8FE0DEDF80E257DF4C
:1018300071DF9AB5992321F087FDF8CF81E00895F3
:1018400080E00895CF92DF92EF92FF920F931F9363
:10185000CF93DF93CDB7DEB728970FB6F894DEBFEE
:101860000FBECDBF8FDF81EC3ADF89E538DF82EC38
:1018700036DF82E034DF80EE32DF8E01075F1F4FFC
:101880007E010894E11CF11C6701F601A2E9B1E0B8
:1018900088E00D9001928150E1F7F80182918F016B
:1018A0001EDF0E151F0589F7B1DF28960FB6F894D5
:1018B000DEBF0FBECDBFDF91CF911F910F91FF9083
:1018C000EF90DF90CF900895A1DF81EC08DF80E0FA
:1018D00006DF81E804DF1EDF8823B9F7D6CE1F9329
:1018E000CF93DF93182FEB01188219821A821B8283
:1018F00099DF882331F18CE4F2DE8AE075DF812FF5
:10190000EEDE8CE4ECDE8BE06FDF81E0E8DE7EDF94
:101910008823B9F087DF8823A1F08BE6E0DE84E03E
:1019200063DF80EADCDE82E0DADE84E2D8DEF2DE4B
:101930008883F0DE8983EEDE8A839AB581E099237D
:1019400009F480E0DF91CF911F910895CF92DF924B
:10195000EF92FF920F931F93CF93DF936B017C0164
:101960008A01E9015FDF882369F18CE4B8DE8AE04F
:101970003BDF83E4B4DEC230D105C0F08BE6AFDEDE
:10198000C701B60118DF80EAAADE8C2F8150A7DEDE
:1019900084E2A5DE06C0BEDEF80181938F012097A8
:1019A00069F08AB521978823B1F708C08CE097DEEB
:1019B000C701B60100DFAEDEF80180839AB581E091
:1019C000992309F480E0DF91CF911F910F91FF904F
:1019D000EF90DF90CF900895CF92DF92EF92FF9239
:1019E000CF93DF93C82F6A017B01D22F1BDF88239F
:1019F00079F08CE474DE8AE0F7DE8C2F70DE8CE404
:101A00006EDEC701B601D7DE8D2F69DE81E001C031
:101A100080E0DF91CF91FF90EF90DF90CF9008951D
:101A20003F924F925F926F927F928F929F92AF926E
:101A3000BF92CF92DF92EF92FF920F931F93CF93BB
:101A4000DF93882E962E342E27013801E601122FBF
:101A500020FF10C0E7DE882309F440C08CE43FDE9D
:101A60008AE0C2DE892D3BDE8CE439DE8BE0BCDE11
:101A700081E035DEA114B104E9F0D4DE882371F1F0
:101A80008CE42DDE8AE0B0DE882D29DE8BE627DEB1
:101A9000C301B20190DE80EA22DE8A2D81501FDE72
:101AA00084E61DDE89911BDE0894A108B108A1140B
:101AB000B104C1F711FF10C0B5DE882379F08CE4C2
:101AC0000EDE8AE091DE832D0ADE8CE408DEC3019F
:101AD000B20171DE80E003DE81E001C080E0DF91D1
:101AE000CF911F910F91FF90EF90DF90CF90BF901B
:101AF000AF909F908F907F906F905F904F903F90AE
:101B00000895CF92DF92EF92FF92CF93C82F6A0190
:101B10007B0188DE882309F455C08CE4C03429F4A5
:101B2000DEDD8AE061DE80E438C0C03309F03CC00D
:101B3000D6DD8AE059DE86E3D2DD8CE4D0DD8BE0B1
:101B400053DE81E0CCDD6EDE882309F43BC08CE4FB
:101B5000C6DD8AE049DE83E3C2DD8BE6C0DDC70176
:101B6000B60129DE80EABBDD80916A018150B7DDD4
:101B700084E6B5DDC0E003C080E0B1DDCF5F2C2F8F
:101B800030E080916A0190916B0128173907A0F32A
:101B90008CE4A5DD8AE028DE80E3A1DD8CE49FDD16
:101BA0008BE022DE81E00BC09ADD8AE01DDE8C2F07
:101BB00096DD8CE494DDC701B601FDDD80E08FDDAC
:101BC00025DE01C080E0CF91FF90EF90DF90CF90B5
:101BD0000895982F9F709069282F30E020733070FF
:101BE000220F331F892F822B7ACD1F93CF93DF9340
:101BF0000F92CDB7DEB7182F88E6998370DD812F5D
:101C00006EDD89E66CDD9981892F69DD0F90DF91AA
:101C1000CF911F91089580E862DD7CDD9AB599230C
:101C200021F081FFF8CF81E0089580E008952091B0
:101C30006801822F8F70806130E020733070220F36
:101C4000331F822B4CDD66DD9AB5992321F087FD89
:101C5000EECF81E0089580E00895CF92DF92EF9279
:101C6000FF920F931F93CF93DF93CDB7DEB72897E3
:101C70000FB6F894DEBF0FBECDBF6ADD82EC2FDD5C
:101C800082E02DDD80EE2BDD8E01075F1F4F7E0190
:101C90000894E11CF11C6701F601AAE9B1E088E0B3
:101CA0000D9001928150E1F7F80182918F0117DDCB
:101CB0000E151F0589F7AFDF28960FB6F894DEBF23
:101CC0000FBECDBFDF91CF911F910F91FF90EF908D
:101CD000DF90CF9008959FDF80EC01DD80E0FFDC96
:101CE00080E8FDDC17DD8823B9F7E2CCEF92FF92A4
:101CF0000F931F93CF93DF937C018B01EA0197DF52
:101D00008823C1F08091690164DF80E0E8DCC701CD
:101D10006CDF06C084E2E3DCFDDCF80181938F0117
:101D2000209721F08AB521978823A1F79AB581E001
:101D3000992309F480E0DF91CF911F910F91FF90DB
:101D4000EF900895EF92FF920F931F93CF93DF933D
:101D50007C018B01EA016BDF882321F1C0FF06C003
:101D6000F801EC0FFD1F8FEF8083219680916901B0
:101D700030DF8DE1B4DCC70138DF10C058DF8823C5
:101D800089F084E6ACDCF8018081A9DC84E6A7DC7C
:101D9000F80181810E5F1F4FA2DC2297209771F717
:101DA00081E001C080E0DF91CF911F910F91FF9002
:101DB000EF9008951F93CF93DF93182FEB0137DF38
:101DC000882371F08091690104DF812F88DCCE01C6
:101DD00081600BDF80E683DC80E081DC28DF01C0EE
:101DE00080E0DF91CF911F910895AF92BF92CF9283
:101DF000DF92EF92FF921F93CF93DF93EC017B0171
:101E00006A0151D2182F8823A9F5C114D10439F0E1
:101E1000F60120813181E21AF30AC20FD31FAA24EE
:101E2000BB2423C08091E80085FD16C08091E800A6
:101E30008E778093E8005BD4C114D10449F0F60199
:101E4000808191818A0D9B1D9183808315E012C052
:101E50002AD2882351F00DC089918093F100089413
:101E6000E108F1080894A11CB11CE114F104D1F6B9
:101E700001C0182F812FDF91CF911F91FF90EF901C
:101E8000DF90CF90BF90AF900895AF92BF92CF9266
:101E9000DF92EF92FF921F93CF93DF93EC017B01D0
:101EA0006A0101D2182F8823A9F5C114D10439F091
:101EB000F60120813181E21AF30AC20FD31FAA244E
:101EC000BB2423C08091E80085FD16C08091E80006
:101ED0008B778093E8000BD4C114D10449F0F6014C
:101EE000808191818A0D9B1D9183808315E012C0B2
:101EF000DAD1882351F00DC08091F10089930894C4
:101F0000E108F1080894A11CB11CE114F104D1F618
:101F100001C0182F812FDF91CF911F91FF90EF907B
:101F2000DF90CF90BF90AF900895AF92BF92DF92B5
:101F3000EF92FF920F931F93CF93DF93EC017B01FE
:101F40005A01B1D1D82E8823E1F587010150104004
:101F50000C0F1D1FA114B10439F0F501808191818E
:101F6000E81AF90A081B190BC0E0D0E025C08091DF
:101F7000E80085FD17C08091E8008B778093E8002A
:101F8000B6D3A114B10451F0F501808191818C0F79
:101F90009D1F9183808355E0D52E13C084D1882363
:101FA00059F00EC08091F100F8018083015010407B
:101FB0000894E108F1082196E114F104C1F601C08A
:101FC000D82E8D2DDF91CF911F910F91FF90EF9023
:101FD000DF90BF90AF9008952091B3013091B4018C
:101FE0002617370728F4B901582F492F20E03EC0A3
:101FF00061157105C9F72091E8002E772093E8005C
:10200000F3CF8EB3882309F446C0853009F43FC06E
:102010008091E80083FD3DC08091E80082FD31C0E1
:102020008091E80080FF22C02091F20030E0E52F8F
:10203000F42F2E1B3F0B05C081918093F10061505E
:102040007040CF01820F931F6115710519F0803127
:10205000910590F321E08031910509F020E0809115
:10206000E8008E778093E8005E2F4F2F6115710591
:1020700041F6222331F605C08EB3882361F0853006
:1020800061F08091E80082FFF7CF80E0089583E05F
:10209000089581E0089582E0089583E008952091F5
:1020A000B3013091B4012617370728F4B901582F2E
:1020B000492F20E03FC061157105C9F72091E80064
:1020C0002E772093E800F3CF8EB3882309F447C01E
:1020D000853009F440C08091E80083FD3EC08091C6
:1020E000E80082FD32C08091E80080FF23C020918B
:1020F000F20030E0E52FF42F2E1B3F0B06C0849139
:102100008093F100319661507040C9018E0F9F1F7E
:102110006115710519F08031910588F321E0803156
:10212000910509F020E08091E8008E778093E80027
:102130005E2F4F2F6115710539F6222329F605C050
:102140008EB3882361F0853061F08091E80082FFD2
:10215000F7CF80E0089583E0089581E0089582E05C
:10216000089583E00895EF92FF920F931F93CF930A
:10217000DF93EB012091B3013091B40126173707AB
:1021800028F4E901482F392F20E03EC02097D1F7ED
:102190002091E8002E772093E800F4CF8EB38823B7
:1021A00009F444C0853009F443C08091E80083FD00
:1021B0003BC08091E80082FD31C08091E80080FF43
:1021C00023C0E090F200FF24042F132FE01AF10A3D
:1021D00007C0C801A7D28093F1000F5F1F4F21975E
:1021E000C8018E0D9F1D209719F08031910588F34D
:1021F00021E08031910509F020E08091E8008E77A0
:102200008093E800402F312F209741F6222331F6AA
:1022100005C08EB3882351F0853051F08091E800DD
:1022200082FFF7CF80E005C081E003C082E001C0FB
:1022300083E0DF91CF911F910F91FF90EF90089570
:102240008F708093E900EBEEF0E080818160808305
:10225000EDEEF0E010826093EC0040838091EE00A0
:10226000881F8827881F08958091AD0187FF11C0BE
:1022700003C08EB38823B1F08091E80082FFF9CFCC
:102280008091E8008B778093E80008958EB38823CF
:1022900049F08091E80080FFF9CF8091E8008E77C7
:1022A0008093E80008958091E4009091E50045E670
:1022B00001C0C9012091EC0020FF22C02091E8005C
:1022C00020FD14C02EB3222399F0253099F02091DF
:1022D000EB0025FD11C02091E4003091E5002817A6
:1022E000390741F3415029F784E0089580E00895CB
:1022F00082E0089583E0089581E0089580E00895E4
:102300002091E80022FFDECFF9CF3CD03ED0809173
:10231000D8008F778093D8008091D8008068809310
:10232000D8008091D8008F7D8093D80084E089BD4B
:1023300086E089BD09B400FEFDCF1EBA1092AB0144
:1023400080E060E042E17CDF8091E1008E7F80935D
:10235000E1008091E20081608093E2008091E200E0
:1023600088608093E2008091E0008E7F8093E0009F
:102370000895E3E6F0E080818E7F808381E08093A2
:10238000AC01C3CF1092E20008951092E1000895CD
:102390001F920F920FB60F9211242F933F934F93DA
:1023A0005F936F937F938F939F93AF93BF93EF93BD
:1023B000FF938091E10080FF17C08091E20080FFD1
:1023C00013C08091E2008E7F8093E2008091E20052
:1023D00080618093E2008091D80080628093D80071
:1023E00019BC1EBA0E943A018091E10084FF2FC0FF
:1023F0008091E20084FF2BC084E089BD86E089BD26
:1024000009B400FEFDCF8091D8008F7D8093D80065
:102410008091E1008F7E8093E1008091E2008F7EC9
:102420008093E2008091E20081608093E2008091DD
:10243000AB01882311F084E007C08091E30087FF9F
:1024400002C083E001C081E08EBB0E943801809110
:10245000E10083FF21C08091E20083FF1DC08091D5
:10246000E100877F8093E10082E08EBB1092AB0198
:102470008091E1008E7F8093E1008091E2008E7F69
:102480008093E2008091E20080618093E20080E02E
:1024900060E042E1D5DE2AD1FF91EF91BF91AF918B
:1024A0009F918F917F916F915F914F913F912F916C
:1024B0000F900FBE0F901F9018951F93CF93DF932F
:1024C00000D00F92CDB7DEB788E0EDEAF1E0909151
:1024D000F10091938150D9F709D18091E80083FFF1
:1024E000F0C08091AD019091AE01953009F46CC0BF
:1024F000963040F4913069F1913070F0933009F0EA
:10250000E0C027C0983009F4AEC0993009F4BDC0CE
:10251000963009F0D6C07AC0803881F0823809F050
:10252000D0C08091B1018F708093E9009091EB0051
:1025300081E095FF80E01092E90001C080E0909179
:10254000E800977F9093E8008093F1001092F100EB
:1025500095C0882319F0823009F0B3C08F718230A2
:1025600009F0AFC08091AF01882341F52091B101FE
:102570002F7009F4A6C02093E9008091EB0080FF42
:102580001DC08091AE01833021F48091EB00806208
:1025900013C08091EB0080618093EB0081E090E0BC
:1025A00002C0880F991F2A95E2F78093EA001092E3
:1025B000EA008091EB0088608093EB001092E900C4
:1025C0008091E800877F5DC0882309F07AC0109170
:1025D000AF011F778091E3008078812B8093E30027
:1025E0008091E800877F8093E8003EDE8091E800DC
:1025F00080FFFCCF8091E30080688093E30011238B
:1026000011F083E001C082E08EBB5BC08058823055
:1026100008F057C08091AF019091B0016091B10175
:10262000AE014E5F5F4F9E012F5F3F4F0E946A01D8
:10263000BC01009709F445C08091E800877F809332
:10264000E80029818A819B81222311F428DD05C0BD
:10265000213011F488DD01C0BFDC8091E8008B7768
:102660008093E8002EC0803861F58091E800877F74
:102670008093E8008091AB018093F1008091E800A5
:102680008E778093E800F0DD1CC08823D1F4909110
:10269000AF019230B0F48091E800877F8093E8002A
:1026A0009093AB01E1DD8091AB01882321F480910F
:1026B000E30087FF02C084E001C081E08EBB0E947E
:1026C0003C018091E80083FF0AC08091E800877F89
:1026D0008093E8008091EB0080628093EB000F9084
:1026E0000F900F90DF91CF911F9108950895CF9390
:1026F0008EB38823A9F08091E9008F709091EC004F
:1027000090FF02C0C0E801C0C0E0C82B1092E900F1
:102710008091E80083FF01C0D0DECF70C093E90054
:10272000CF910895F999FECF92BD81BDF89A99276E
:1027300080B50895262FF999FECF92BD81BDF89AF4
:10274000019700B4021639F01FBA20BD0FB6F894F5
:0C275000FA9AF99A0FBE0895F894FFCF92
:10275C001C033000300030003200300030003000FC
:10276C003100320033003400350000000000090253
:10277C002000010100C0320904000002FF0000002B
:10278C000705820240000A0705020240000A415672
:10279C00524953505F4D4B32008001008101009033
:1027AC0001009101019201199401219803069E03E5
:1027BC0001A10100A403000132332000C00100017B
:1027CC0040206830222A3218242C354C081A232336
:1027DC003323232326263626262601010100000159
:1027EC0038391289AB45CDD888FF1289AB45CDD885
:0227FC0088FF54
:00000001FF
