S019000043656E7472616C436F6E74726F6C6C65722E737265631E
S11300000C9493000C94B0000C94B0000C94B000C9
S11300100C94B0000C94B0000C94B0000C94B0009C
S11300200C94B0000C94B0000C94B0000C945C07D9
S11300300C94B0000C94B0000C94B0000C94B0007C
S11300400C94B0000C94B0000C94B0000C94B0006C
S11300500C94B0000C94B0000C94B0000C94B0005C
S11300600C94B0000C94B0000C94B0000C94B0004C
S11300700C94B00045086E089D096E089D09AE08F1
S1130080D2089D093E0950092E034C005500460034
S1130090410020005500530042002D00520053003F
S11300A0320033003200200041006400610070001F
S11300B074006500720000001803440065006100CC
S11300C06E002000430061006D0065007200610055
S11300D000000403090409023E00020100C03209C1
S11300E0040000010202010005240010010424029E
S11300F0060524060001070582030800FF09040120
S113010000020A0000000705040210000507058329
S1130110021000051201100102000008EB034B203D
S113012001000102DC0111241FBECFEFD2E0DEBFCB
S1130130CDBF11E0A0E0B1E0E6E4F7E102C0059034
S11301400D92AC32B107D9F721E0ACE2B1E001C0C5
S11301501D92A934B207E1F70E94DD010C94A10BB2
S11301600C94000084B7877F84BF88E10FB6F894AD
S113017080936000109260000FBE90E080E80FB69C
S1130180F89480936100909361000FBE84B1806CF9
S113019084B985B18F7385B90E943D07089585B1EF
S11301A08F73806885B9089585B18F73806485B92C
S11301B0089580E091E00E947902882311F090E88C
S11301C001C090EC85B18F73892B85B9089580E0C7
S11301D091E00E941C0308950895CF93DF93CDB757
S11301E0DEB72B970FB6F894DEBF0FBECDBFEFE29C
S11301F0F1E0A281B3812D91B383A283868197819B
S1130200A817B90721F484819581938382833FB72A
S1130210F894828593850197938782873FBF85E011
S1130220E6E2F1E0DE01119601900D928A95E1F784
S113023085E0E6E2F1E0DE01169601900D928A95E2
S1130240E1F7273409F03DC0EFE2F1E0A281B38188
S11302502D91B383A28386819781A817B90721F4CE
S113026084819581938382833FB7F89482859385B3
S11302700197938782873FBF80EB820F8A87EFE2E3
S1130280F1E0A281B3812D91B383A283868197810A
S1130290A817B90721F484819581938382833FB79A
S11302A0F894828593850197938782873FBF2B8734
S11302B0CE0106960E944C0ACE010B960E94CB0AF0
S11302C073C02335D9F454C0FA0182819381019615
S11302D093838283268137818217930721F4848153
S11302E09581938382832FB7F894828593850197B0
S11302F0938782872FBF615039F756C02435D9F4CC
S113030045C0FA0182819381019693838283268179
S113031037818217930721F48481958193838283A3
S11303202FB7F894828593850197938782872FBF8F
S1130330615039F739C062E04FE251E0FA0182813D
S11303409381019693838283268137818217930751
S113035021F484819581938382832FB7F8948285D5
S113036093850197938782872FBF615039F71CC00B
S11303708BEA8B87CE0101960E944C0ACE010B9624
S11303800E94CB0A62E04FE251E09ECF8AEB8B875A
S1130390CE0101960E944C0ACE010B960E94CB0A14
S11303A062E04FE251E0ADCF2B960FB6F894DEBF7A
S11303B00FBECDBFDF91CF9108950E94B200EFE24E
S11303C0F1E02FB7F8948CE291E0918380839383DA
S11303D08283958384838FE291E09783868383E08D
S11303E090E091878087138612862FBF85B18F7323
S11303F0806485B978940E94180B09E311E0C7E37F
S1130400D1E00F2EFFE2EF2EF1E0FF2EF02D8FB79B
S1130410F894F801208131818FBF88819981281750
S1130420390709F180E091E00E94E4029923ECF09D
S1130430F701A081B1818C93808191810196918390
S11304408083268137818217930721F484819581E3
S1130450918380832FB7F89482859385019693873F
S113046082872FBF02C00E94ED0080E091E00E94CD
S1130470CD020E94C309CBCF292F33272230310567
S113048059F02330310569F02130310529F180E03C
S113049090E020E030E029C08EE390E026ED30E0EB
S11304A024C099278130910559F08230910571F06B
S11304B0892BB9F4E2EDF0E0849190E09F0115C03E
S11304C0E8EBF0E0849190E09F010FC0E8E8F0E0F1
S11304D0849190E09F0109C082E190E024E131E041
S11304E004C080E090E020E030E0FA013183208312
S11304F00895CF93DF93EC01FC0170968BE0DF014C
S11305001D928A95E9F782E08C83898783E08E8740
S113051061E0CE0101960E94FB05882361F061E051
S1130520CE0106960E94FB05882329F061E0CE01E6
S11305300B960E94FB05DF91CF9108952091400115
S1130540243019F5FC014489558966897789452B3E
S1130550462B472BE1F081818F708093E9008091D5
S1130560F2008823B1F0E8EEF0E0808190819E777C
S1130570908385FD10C00E947D0681110DC0E8EEB8
S1130580F0E090819E779083089582E0089582E060
S1130590089580E0089580E008952091400124307A
S11305A091F4FC014489558966897789452B462B4A
S11305B0472B49F021812F702093E9002091E80016
S11305C020FD0E949E02089520914001243039F5B7
S11305D0FC014489558966897789452B462B472B2D
S11305E009F186818F708093E9008091E80082FF91
S11305F01CC08091F200882321F02091F10030E0AA
S113060002C02FEF3FEF8091F200811111C0E8EE9C
S1130610F0E080818B778083822F932F08958FEF72
S11306209FEF08958FEF9FEF08958FEF9FEF089549
S1130630822F932F08950895CF93DF93EC01809137
S1130640E80083FF9CC0888190E0209145013091AF
S113065046012817390709F092C08091420181327E
S113066059F018F48032C1F18AC0823209F462C0B0
S1130670833209F474C083C080914101813A09F046
S11306807EC0E8EEF0E08081877F8083808180FFF8
S1130690FDCF4C895D896E897F89E1EFF0E040836D
S11306A0BB27A72F962F852F8083CB01AA27BB2793
S11306B08083472F5527662777274083888D80833B
S11306C0898D80838A8D8083E8EEF0E080818E7747
S11306D080830E94590653C080914101813209F000
S11306E04EC0E8EEF0E08081877F808305C0809172
S11306F04001882309F443C0808182FFF8CFE1EFF1
S1130700F0E030812081908180813C8B2D8B9E8B09
S11307108F8B8081888F8081898F80818A8FE8EE9A
S1130720F0E080818B7780830E945906CE010E947D
S1130730EC0025C080914101813209F5E8EEF0E03A
S11307408081877F80830E94590680914301909124
S11307504401998B888BCE010E941B0310C08091A9
S11307604101813261F4E8EEF0E08081877F80838B
S11307700E94590660914301CE010E941B03DF9140
S1130780CF910895CF92DF92EF92FF920F931F9330
S1130790CF93DF9320914701309148012617370703
S11307A058F06115710539F4E8EEF0E020812E77F8
S11307B020839B0101C09B01482F592FA0E0E8EE44
S11307C0F0E00F2EF2EFEF2EF12CF02DC1EFD0E080
S11307D0DD24D394C12C43C080914001882309F4C3
S11307E053C0853009F452C0808183FD51C080819B
S11307F082FF03C0E8EEF0E042C0808180FF2FC09A
S1130800D7010C9110E021153105D9F080911B011D
S113081090E008171907B8F4DA01041B150B8D9141
S11308208883AD0121503109C8018A0F9B1F21150E
S1130830310551F060911B0170E08617970778F33A
S113084003C0C80101C0C80160911B0170E0AD2D57
S11308506817790709F0AC2D80818E778083211584
S1130860310509F0B9CFA111B7CFC4CF80914001B0
S1130870882381F0853081F0808183FD0FC08081E1
S113088082FFF4CF80E00BC082E009C083E007C0A0
S113089081E005C082E003C083E001C081E0DF9114
S11308A0CF911F910F91FF90EF90DF90CF9008951B
S11308B0EF92FF920F931F93CF93DF932091470101
S11308C0309148012617370758F06115710539F43E
S11308D0E8EEF0E020812E7720839B0101C09B018C
S11308E0482F592F60E0A8EEB0E002EF10E0C1EF0E
S11308F0D0E0FF24F394E12C46C08091400188238A
S113090009F456C0853009F455C08C9183FD54C058
S11309108C9182FF03C0E8EEF0E045C08C9180FF2B
S113092032C0F801608170E021153105D9F0809161
S11309301B0190E068177907C0F4FA01641B750B7A
S113094084918883319621503109CF01860F971FF6
S11309502115310561F040911B0150E08417950782
S113096078F305C0CB01FA0102C0CB01FA01409132
S11309701B0150E06F2D4817590709F06E2D8C911B
S11309808E778C93AF012115310509F0B6CF611133
S1130990B4CFC1CF80914001882381F0853081F0AC
S11309A0808183FD0FC0808182FFF4CF80E00BC083
S11309B082E009C083E007C081E005C082E003C093
S11309C083E001C081E0DF91CF911F910F91FF90EF
S11309D0EF9008956F927F928F929F92AF92BF9201
S11309E0CF92DF92EF92FF920F931F93CF93DF93F7
S11309F000914701109148010617170758F0611537
S1130A00710539F4E8EEF0E020812E7720838B0124
S1130A1001C08B01282F392F40E0C8EED0E00F2E03
S1130A20F2EFAF2EB12CF02D0F2EF1EFEF2EF12CB3
S1130A30F02D77247394612C4BC08091400188235E
S1130A4009F45BC0853009F45AC0888183FD59C01C
S1130A50888182FF03C0E8EEF0E04AC0888180FF0D
S1130A6037C0F501C080D12C0115110501F1809129
S1130A701B0190E0C816D906E8F44901C21AD30A4A
S1130A80C4010E94990BF7018083FFEF8F1A9F0A1C
S1130A9001501109C4018C0D9D1D0115110561F052
S1130AA020911B0130E08217930750F305C0C60163
S1130AB0490102C0C601490120911B0130E0472DC4
S1130AC02817390709F0462D88818E778883940189
S1130AD00115110509F0B1CF4111AFCFBCCF809101
S1130AE04001882381F0853081F0808183FD0FC02F
S1130AF0808182FFF4CF80E00BC082E009C083E0F4
S1130B0007C081E005C082E003C083E001C081E04A
S1130B10DF91CF911F910F91FF90EF90DF90CF90D5
S1130B20BF90AF909F908F907F906F9008958F9219
S1130B309F92BF92CF92DF92EF92FF920F931F93F7
S1130B40CF93DF93853070F126C0592F5F70E80191
S1130B505883891731F0E901D8805081E401788104
S1130B6003C05B2DD62E7C2D51FF12C04C914E7FBD
S1130B704C9340814D7F40834C9141604C93E901FB
S1130B80D8825083E4017883E7015881552344F4E3
S1130B909F5F9530D1F68F708093E90081E01FC08C
S1130BA080E01DC0982F9F709093E900982F542FD8
S1130BB0D62E70E0ABEEB0E0EDEEF0E02CEE30E0DF
S1130BC00F2EF0EF8F2E912CF02D0F2EFEEEEF2E28
S1130BD0F12CF02D09EE10E0B42EC12CC5CFDF911D
S1130BE0CF911F910F91FF90EF90DF90CF90BF9026
S1130BF09F908F900895BF92CF92DF92EF92FF92D1
S1130C000F931F93CF93DF93062F662309F442C0FB
S1130C10C82FD92F10E0F12C6894DD24D3F8E12CEF
S1130C206894BB24B1F80F2EF6E0CF2EF02D588136
S1130C30552359F19C81E981FA817B81852F8F703D
S1130C40853050F5923010F04C2D01C04B2DE93019
S1130C50F10550F02D2D3E2D9F2D9F5F220F331F48
S1130C602E173F07D0F301C09F2D9295907F492BFB
S1130C70551F5527551F7295770F770F707C672F77
S1130C80652B0E949705882351F01F5F259610134A
S1130C90CECF04C081E003C080E001C081E0DF91D9
S1130CA0CF911F910F91FF90EF90DF90CF90BF9065
S1130CB008958091410188231CF0E8EEF0E014C00F
S1130CC0E8EEF0E004C0809140018823A9F080811F
S1130CD082FFF9CFE8EEF0E080818B77808308957E
S1130CE080914001882341F0808180FFF9CFE8EEB4
S1130CF0F0E080818E77808308950F931F93CF93C4
S1130D00DF932091E4003091E50065E6ACEEB0E0BD
S1130D10E8EEF0E00BEE10E044EE50E08C9180FD44
S1130D2021C024C080914001882381F0853081F066
S1130D30E801888185FD0EC0EA0188819981281720
S1130D40390761F3615041F09C01E8CF82E012C0A1
S1130D5083E010C081E00EC084E00CC080E00AC0D3
S1130D6080E008C0808180FFDDCFF8CF808182FFE2
S1130D70D9CFF6CFDF91CF911F910F910895CF93E3
S1130D80DF9300D01F92CDB7DEB70E9456070E94B2
S1130D905907E8EDF0E080818F7780838081806857
S1130DA0808380818F7D808380913B0182FD07C099
S1130DB084E089BD86E089BD09B400FEFDCF1092B0
S1130DC0400110923C0110923E0110923D019E019F
S1130DD02D5F3F4FAE014F5F5F4F60E080E091E0D9
S1130DE00E943C02892BC9F08B81811107C0E981E3
S1130DF0FA813796E491E0931B010FC0813041F4EE
S1130E0089819A8107960E94990B80931B0105C0E2
S1130E10E981FA81878180931B0120911B0130E0D5
S1130E202930310550F088E090E040E04F5F880FB2
S1130E30991F82179307D0F301C040E04295407F89
S1130E40426060E080E00E949705E1EEF0E080817E
S1130E508E7F8083E2EEF0E08081816080838081F8
S1130E6088608083E0EEF0E080818E7F80830F9045
S1130E700F900F90DF91CF91089580933B01809163
S1130E803B0181FD06C0E3E6F0E080818E7F808334
S1130E9005C0E3E6F0E080818160808380913B01BE
S1130EA081E080933F010E94BF0608951092E20002
S1130EB008951092E10008951F920F920FB60F92B9
S1130EC011242F933F934F935F936F937F938F934B
S1130ED09F93AF93BF93EF93FF938091E10082FFC1
S1130EE00BC08091E20082FF07C0E1EEF0E0808158
S1130EF08B7F80830E94C2098091E10080FF19C02A
S1130F008091E20080FF15C0E2EEF0E080818E7FE8
S1130F108083808180618083E8EDF0E0808180625D
S1130F20808380913B0182FF19BC109240010E9492
S1130F30D4008091E10084FF34C08091E20084FFFA
S1130F4030C080913B0182FD07C084E089BD86E00A
S1130F5089BD09B400FEFDCFE8EDF0E080818F7D0E
S1130F608083E1EEF0E080818F7E8083E2EEF0E02A
S1130F7080818F7E808380818160808380913C0129
S1130F80882321F084E08093400109C08091E3002C
S1130F90882314F483E001C081E0809340010E941F
S1130FA0CF008091E10083FF33C08091E20083FF92
S1130FB02FC0E1EEF0E08081877F808382E0809320
S1130FC0400110923C0180818E7F8083E2EEF0E04C
S1130FD080818E7F808380818061808320911B014A
S1130FE030E02930310550F088E090E040E04F5F78
S1130FF0880F991F82179307D0F301C040E04295F0
S1131000407F426060E080E00E9497050E94C20930
S1131010FF91EF91BF91AF919F918F917F916F91CC
S11310205F914F913F912F910F900FBE0F901F90A2
S113103018950F931F93CF93DF93CDB7DEB7AB977C
S11310400FB6F894DEBF0FBECDBFE1E4F1E089E452
S113105091E0A1EFB0E02C912193E817F907D9F7BB
S11310600E94E7008091E80083FF67C1309141014D
S113107020914201822F90E08A30910508F05DC1F1
S1131080FC01E65CFF4F0C94930B303821F03238AE
S113109009F053C108C080913D0190913E0199230C
S11310A071F082600CC0809145018F70E9EEF0E030
S11310B080838091EB0085FB882780F91082E8EE1D
S11310C0F0E09081977F9083A1EFB0E08C931C9225
S11310D080818E7780830E9459062FC1332309F4BF
S11310E03BC1323009F029C13CC181E0233009F011
S11310F080E080933E0128C0209145012F7009F4BF
S11311001CC12093E9008091EB0080FF1DC08091F9
S11311104201833031F4EBEEF0E080818062808321
S113112013C0EBEEF0E080818061808381E090E089
S113113002C0880F991F2A95E2F7AAEEB0E08C93BB
S11311401C928081886080831092E900E8EEF0E0D0
S11311508081877F80830E945906EFC03111EDC0E2
S1131160109143011F77E3EEF0E080818078812BBA
S11311708083E8EEF0E08081877F80830E945906B7
S1131180E8EEF0E0808180FFFDCFE3EEF0E08081C7
S113119080688083112311F083E001C082E0809392
S11311A04001CBC03058323008F0C7C080914301B1
S11311B0909144018C3D23E09207A1F583E08A835A
S11311C08AE289835FB7F894DE01139620E03EE05B
S11311D041E2E32FF0E040935700849120FF03C0E5
S11311E082958F703F5F8F708A3018F090E0C796B9
S11311F002C090E0C0968D939D932F5F243149F7F0
S11312005FBF08EE10E0F8018081877F80836AE287
S113121070E0CE0101960E94C203F80180818B77B1
S113122080838BC09E01255D3F4FAE014F5F5F4FB2
S1131230609145010E943C02BC01009709F47DC005
S1131240E8EEF0E08081877F80838BA5811105C063
S113125089819A810E9458040BC0813029F48981C4
S11312609A810E94EA0404C089819A810E94C2037F
S1131270E8EEF0E080818B7780835FC0303809F03E
S11312805CC0E8EEF0E08081877F808380913C0140
S11312908093F10080818E7780830E9459064DC02F
S11312A031114BC09E01255D3F4FAE014F5F5F4F33
S11312B060E080E091E00E943C02892B09F43DC08B
S11312C08BA5811109C0E981FA817196E49180911D
S11312D04301E81790F113C0813051F489819A8158
S11312E041960E94990B90914301891730F107C0F0
S11312F0E981FA819091430181898917F0F0E8EE40
S1131300F0E08081877F80838091430180933C015A
S11313100E94590680913C01882321F084E0809347
S1131320400109C08091E300882314F484E001C0E3
S113133081E0809340010E94D9008091E80083FFFE
S113134016C0E8EEF0E08081877F8083EBEEF0E06A
S11313508081806280830BC080914301813069F772
S1131360C4CE80914301882309F4C6CEEDCEAB965A
S11313700FB6F894DEBF0FBECDBFDF91CF911F91A2
S11313800F9108950895CF93809140018823A9F087
S1131390C091E900CF708091EC0080FF02C080E82A
S11313A001C080E0C82B1092E9008091E80083FD21
S11313B00E941908CF70C093E900CF91089528982E
S11313C08F710E948D0B8FEF0E948D0B289A0895C8
S11313D0CF93C62F28988F7180620E948D0B8C2F1B
S11313E00E948D0B289ACF910895FF920F931F931B
S11313F0CF93DF93F62E172F042F28988F718062D6
S11314000E948D0B002349F0CF2DD12F10E089913C
S11314100E948D0B1F5F1013FACF289ADF91CF9192
S11314201F910F91FF90089520E030E00496FB0196
S1131430E20FF31FDC01A21BB30B4C9140832F5F1F
S11314403F4F2530310599F70895CF93DF9300D0AE
S113145000D01F92CDB7DEB79B01811115C085E086
S1131460FB01A1E2B1E001900D928A95E1F7BE0182
S11314706F5F7F4FC9010E94140A45E0BE016F5F90
S11314807F4F8AE00E94F5090F900F900F900F9004
S11314900F90DF91CF910895CF93DF9300D000D0C8
S11314A01F92CDB7DEB725E0FC01ACE1B1E00190BD
S11314B00D922A95E1F7BE016F5F7F4F0E94140AD7
S11314C045E0BE016F5F7F4F8AE00E94F50945E069
S11314D0BE016F5F7F4F80E10E94F5090F900F906E
S11314E00F900F900F90DF91CF910895289882EE7E
S11314F00E948D0B289A0895289881EE0E948D0BE6
S1131500289A089561E271E080E00E94250A80E053
S11315100E94DF09682F616080E00E94E80980E092
S11315200E94DF09682F626080E00E94E80960E79A
S113153087E00E94E8090E94760A0E947C0A2D9A9C
S113154087E592E00197F1F700C0000008952D9817
S113155080E00E94DF09682F6E7F80E00E94E80926
S113156080E00E94DF09682F626080E00E94E80941
S113157060E787E00E94E8090E947C0A87E592E020
S11315800197F1F700C00000089528988FEF0E949A
S11315908D0B289A0895CF93DF93EC010E94A70A3C
S11315A0289880EA0E948D0B88810E948D0B289ACE
S11315B02D9A80E58A95F1F72D9885E38A95F1F7C0
S11315C000000E94C50A8073C1F30E94C50AC82F97
S11315D06CE485E00E94E80980E00E94DF09682F3E
S11315E06D7F80E00E94E8090E94820AC5FB88277B
S11315F080F9DF91CF91089586E00E94DF09682F7A
S1131600666086E00E94E809089586E00E94DF098A
S1131610877D682F686086E00E94E809089580E06D
S11316200E94DF09682F6C6080E00E94E809089539
S1131630209A259A0E94820B2D98289A8FE19EE485
S11316400197F1F700C000000E94FC0A0E94050BFC
S11316500E940F0B67E284E00E94E80960E08CE1DD
S11316600E94E8096CE485E00E94E80961E081E1F8
S11316700E94E80960E082E00E94E80982E00E949A
S1131680DF09682F616082E00E94E80981E00E941E
S1131690DF09682F616081E00E94E80981E00E940F
S11316A0DF09682F626081E00E94E80981E00E94FE
S11316B0DF09682F646081E00E94E80981E00E94EC
S11316C0DF09682F686081E00E94E80981E00E94D8
S11316D0DF09682F606181E00E94E80981E00E94CF
S11316E0DF09682F606281E00E94E80961E271E02D
S11316F080E00E94250A8CE191E00E944C0A0E943D
S1131700820A089584B1807F84B984B1876084B9E2
S113171081E58CBD81E08DBD08958EBD0DB407FEBD
S1131720FDCF8EB50895EE0FFF1F0590F491E02DC7
S11317300994F999FECF92BD81BDF89A992780B595
S10917400895F894FFCFA8
S1131746008310000001041000000182080000015B
S11317560000000000000000000000080808080857
S10F1766080808080808CCCCCCCCCC0047
S9030000FC
